{
    "contractName": "JobPortal",
    "abi": [
        {
            "anonymous": false,
            "inputs": [
                {
                    "indexed": false,
                    "internalType": "uint256",
                    "name": "jobId",
                    "type": "uint256"
                },
                {
                    "indexed": false,
                    "internalType": "address",
                    "name": "applicant",
                    "type": "address"
                },
                {
                    "indexed": false,
                    "internalType": "string",
                    "name": "name",
                    "type": "string"
                },
                {
                    "indexed": false,
                    "internalType": "string",
                    "name": "resume",
                    "type": "string"
                }
            ],
            "name": "JobApplied",
            "type": "event"
        },
        {
            "anonymous": false,
            "inputs": [
                {
                    "indexed": false,
                    "internalType": "uint256",
                    "name": "id",
                    "type": "uint256"
                },
                {
                    "indexed": false,
                    "internalType": "address",
                    "name": "employer",
                    "type": "address"
                },
                {
                    "indexed": false,
                    "internalType": "string",
                    "name": "title",
                    "type": "string"
                }
            ],
            "name": "JobCreated",
            "type": "event"
        },
        {
            "anonymous": false,
            "inputs": [
                {
                    "indexed": false,
                    "internalType": "uint256",
                    "name": "id",
                    "type": "uint256"
                }
            ],
            "name": "JobRemoved",
            "type": "event"
        },
        {
            "anonymous": false,
            "inputs": [
                {
                    "indexed": false,
                    "internalType": "uint256",
                    "name": "id",
                    "type": "uint256"
                },
                {
                    "indexed": false,
                    "internalType": "string",
                    "name": "title",
                    "type": "string"
                }
            ],
            "name": "JobUpdated",
            "type": "event"
        },
        {
            "inputs": [],
            "name": "JobCount",
            "outputs": [
                {
                    "internalType": "uint256",
                    "name": "",
                    "type": "uint256"
                }
            ],
            "stateMutability": "view",
            "type": "function"
        },
        {
            "inputs": [
                {
                    "internalType": "uint256",
                    "name": "",
                    "type": "uint256"
                }
            ],
            "name": "JobPosts",
            "outputs": [
                {
                    "internalType": "uint256",
                    "name": "id",
                    "type": "uint256"
                },
                {
                    "internalType": "address",
                    "name": "employer",
                    "type": "address"
                },
                {
                    "internalType": "string",
                    "name": "title",
                    "type": "string"
                },
                {
                    "internalType": "string",
                    "name": "description",
                    "type": "string"
                },
                {
                    "internalType": "string",
                    "name": "requirements",
                    "type": "string"
                },
                {
                    "internalType": "uint256",
                    "name": "salary",
                    "type": "uint256"
                },
                {
                    "internalType": "uint256",
                    "name": "applicationDeadline",
                    "type": "uint256"
                },
                {
                    "internalType": "bool",
                    "name": "isActive",
                    "type": "bool"
                }
            ],
            "stateMutability": "view",
            "type": "function"
        },
        {
            "inputs": [
                {
                    "internalType": "address",
                    "name": "",
                    "type": "address"
                },
                {
                    "internalType": "uint256",
                    "name": "",
                    "type": "uint256"
                }
            ],
            "name": "applicantJobs",
            "outputs": [
                {
                    "internalType": "uint256",
                    "name": "",
                    "type": "uint256"
                }
            ],
            "stateMutability": "view",
            "type": "function"
        },
        {
            "inputs": [
                {
                    "internalType": "address",
                    "name": "",
                    "type": "address"
                },
                {
                    "internalType": "uint256",
                    "name": "",
                    "type": "uint256"
                }
            ],
            "name": "employerJobs",
            "outputs": [
                {
                    "internalType": "uint256",
                    "name": "",
                    "type": "uint256"
                }
            ],
            "stateMutability": "view",
            "type": "function"
        },
        {
            "inputs": [
                {
                    "internalType": "string",
                    "name": "_title",
                    "type": "string"
                },
                {
                    "internalType": "string",
                    "name": "_description",
                    "type": "string"
                },
                {
                    "internalType": "string",
                    "name": "_requirements",
                    "type": "string"
                },
                {
                    "internalType": "uint256",
                    "name": "_salary",
                    "type": "uint256"
                },
                {
                    "internalType": "uint256",
                    "name": "_applicationDeadline",
                    "type": "uint256"
                }
            ],
            "name": "createJob",
            "outputs": [],
            "stateMutability": "nonpayable",
            "type": "function"
        },
        {
            "inputs": [
                {
                    "internalType": "uint256",
                    "name": "_id",
                    "type": "uint256"
                },
                {
                    "internalType": "string",
                    "name": "_title",
                    "type": "string"
                },
                {
                    "internalType": "string",
                    "name": "_description",
                    "type": "string"
                },
                {
                    "internalType": "string",
                    "name": "_requirements",
                    "type": "string"
                },
                {
                    "internalType": "uint256",
                    "name": "_salary",
                    "type": "uint256"
                },
                {
                    "internalType": "uint256",
                    "name": "_applicationDeadline",
                    "type": "uint256"
                }
            ],
            "name": "updateJob",
            "outputs": [],
            "stateMutability": "nonpayable",
            "type": "function"
        },
        {
            "inputs": [
                {
                    "internalType": "uint256",
                    "name": "_id",
                    "type": "uint256"
                }
            ],
            "name": "removeJob",
            "outputs": [],
            "stateMutability": "nonpayable",
            "type": "function"
        },
        {
            "inputs": [
                {
                    "internalType": "uint256",
                    "name": "_jobId",
                    "type": "uint256"
                },
                {
                    "internalType": "string",
                    "name": "_name",
                    "type": "string"
                },
                {
                    "internalType": "string",
                    "name": "_resume",
                    "type": "string"
                }
            ],
            "name": "applyForJob",
            "outputs": [],
            "stateMutability": "nonpayable",
            "type": "function"
        },
        {
            "inputs": [],
            "name": "getAllJobs",
            "outputs": [
                {
                    "components": [
                        {
                            "internalType": "uint256",
                            "name": "id",
                            "type": "uint256"
                        },
                        {
                            "internalType": "address",
                            "name": "employer",
                            "type": "address"
                        },
                        {
                            "internalType": "string",
                            "name": "title",
                            "type": "string"
                        },
                        {
                            "internalType": "string",
                            "name": "description",
                            "type": "string"
                        },
                        {
                            "internalType": "string",
                            "name": "requirements",
                            "type": "string"
                        },
                        {
                            "internalType": "uint256",
                            "name": "salary",
                            "type": "uint256"
                        },
                        {
                            "internalType": "uint256",
                            "name": "applicationDeadline",
                            "type": "uint256"
                        },
                        {
                            "internalType": "bool",
                            "name": "isActive",
                            "type": "bool"
                        },
                        {
                            "internalType": "address[]",
                            "name": "applicants",
                            "type": "address[]"
                        }
                    ],
                    "internalType": "struct JobPortal.JobPostView[]",
                    "name": "",
                    "type": "tuple[]"
                }
            ],
            "stateMutability": "view",
            "type": "function"
        },
        {
            "inputs": [
                {
                    "internalType": "uint256",
                    "name": "_jobId",
                    "type": "uint256"
                }
            ],
            "name": "getApplicants",
            "outputs": [
                {
                    "internalType": "address[]",
                    "name": "",
                    "type": "address[]"
                }
            ],
            "stateMutability": "view",
            "type": "function"
        },
        {
            "inputs": [
                {
                    "internalType": "uint256",
                    "name": "_jobId",
                    "type": "uint256"
                },
                {
                    "internalType": "address",
                    "name": "_applicant",
                    "type": "address"
                }
            ],
            "name": "getApplicantInfo",
            "outputs": [
                {
                    "internalType": "string",
                    "name": "",
                    "type": "string"
                },
                {
                    "internalType": "string",
                    "name": "",
                    "type": "string"
                }
            ],
            "stateMutability": "view",
            "type": "function"
        }
    ],
    "bytecode": "0x608060405234801561001057600080fd5b50611f6c806100206000396000f3fe608060405234801561001057600080fd5b50600436106100a95760003560e01c80637cf029a9116100715780637cf029a91461017f578063965a79fb1461019b5780639cb29cbd146101b9578063a305dfe5146101d5578063e1ff75e0146101f1578063fc736cde14610222576100a9565b806323d5a795146100ae5780634a0669a9146100ca5780636cf5d86e146101015780637022331c146101315780637848a43314610161575b600080fd5b6100c860048036038101906100c39190611428565b610252565b005b6100e460048036038101906100df91906113bb565b61045b565b6040516100f8989796959493929190611a87565b60405180910390f35b61011b600480360381019061011691906113bb565b610668565b6040516101289190611900565b60405180910390f35b61014b600480360381019061014691906112ac565b610712565b60405161015891906119db565b60405180910390f35b610169610743565b60405161017691906119db565b60405180910390f35b610199600480360381019061019491906112ec565b610749565b005b6101a36108ed565b6040516101b09190611922565b60405180910390f35b6101d360048036038101906101ce91906113bb565b610d05565b005b6101ef60048036038101906101ea91906114b3565b610e06565b005b61020b600480360381019061020691906113e8565b610f4e565b604051610219929190611944565b60405180910390f35b61023c600480360381019061023791906112ac565b6110da565b60405161024991906119db565b60405180910390f35b60006001600085815260200190815260200160002090508060070160009054906101000a900460ff166102ba576040517f08c379a00000000000000000000000000000000000000000000000000000000081526004016102b19061199b565b60405180910390fd5b80600801339080600181540180825580915050600190039060005260206000200160009091909190916101000a81548173ffffffffffffffffffffffffffffffffffffffff021916908373ffffffffffffffffffffffffffffffffffffffff1602179055506040518060400160405280848152602001838152508160090160003373ffffffffffffffffffffffffffffffffffffffff1673ffffffffffffffffffffffffffffffffffffffff168152602001908152602001600020600082015181600001908051906020019061039192919061110b565b5060208201518160010190805190602001906103ae92919061110b565b50905050600360003373ffffffffffffffffffffffffffffffffffffffff1673ffffffffffffffffffffffffffffffffffffffff1681526020019081526020016000208490806001815401808255809150506001900390600052602060002001600090919091909150557f43a180fcaf8e75115b16151419862ebeffd659f5d1022891f1a7eb3b77cb659c8433858560405161044d9493929190611a34565b60405180910390a150505050565b60016020528060005260406000206000915090508060000154908060010160009054906101000a900473ffffffffffffffffffffffffffffffffffffffff16908060020180546104aa90611cda565b80601f01602080910402602001604051908101604052809291908181526020018280546104d690611cda565b80156105235780601f106104f857610100808354040283529160200191610523565b820191906000526020600020905b81548152906001019060200180831161050657829003601f168201915b50505050509080600301805461053890611cda565b80601f016020809104026020016040519081016040528092919081815260200182805461056490611cda565b80156105b15780601f10610586576101008083540402835291602001916105b1565b820191906000526020600020905b81548152906001019060200180831161059457829003601f168201915b5050505050908060040180546105c690611cda565b80601f01602080910402602001604051908101604052809291908181526020018280546105f290611cda565b801561063f5780601f106106145761010080835404028352916020019161063f565b820191906000526020600020905b81548152906001019060200180831161062257829003601f168201915b5050505050908060050154908060060154908060070160009054906101000a900460ff16905088565b606060006001600084815260200190815260200160002090508060080180548060200260200160405190810160405280929190818152602001828054801561070557602002820191906000526020600020905b8160009054906101000a900473ffffffffffffffffffffffffffffffffffffffff1673ffffffffffffffffffffffffffffffffffffffff16815260200190600101908083116106bb575b5050505050915050919050565b6003602052816000526040600020818154811061072e57600080fd5b90600052602060002001600091509150505481565b60005481565b60008081548092919061075b90611d3d565b91905055506000600160008054815260200190815260200160002090506000548160000181905550338160010160006101000a81548173ffffffffffffffffffffffffffffffffffffffff021916908373ffffffffffffffffffffffffffffffffffffffff160217905550858160020190805190602001906107de92919061110b565b50848160030190805190602001906107f792919061110b565b508381600401908051906020019061081092919061110b565b5082816005018190555081816006018190555060018160070160006101000a81548160ff021916908315150217905550600260003373ffffffffffffffffffffffffffffffffffffffff1673ffffffffffffffffffffffffffffffffffffffff16815260200190815260200160002060005490806001815401808255809150506001900390600052602060002001600090919091909150557f0b2f02f963ce3223e85a994fcae7a7d92895415750c09ddf28dd2790f9247d9560005433886040516108dd939291906119f6565b60405180910390a1505050505050565b6060600080600190505b600054811161094b576001600082815260200190815260200160002060070160009054906101000a900460ff161561093857818061093490611d3d565b9250505b808061094390611d3d565b9150506108f7565b5060008167ffffffffffffffff81111561096857610967611e13565b5b6040519080825280602002602001820160405280156109a157816020015b61098e611191565b8152602001906001900390816109865790505b509050600080600190505b6000548111610cfb576001600082815260200190815260200160002060070160009054906101000a900460ff1615610ce8576000600160008381526020019081526020016000209050604051806101200160405280826000015481526020018260010160009054906101000a900473ffffffffffffffffffffffffffffffffffffffff1673ffffffffffffffffffffffffffffffffffffffff168152602001826002018054610a5a90611cda565b80601f0160208091040260200160405190810160405280929190818152602001828054610a8690611cda565b8015610ad35780601f10610aa857610100808354040283529160200191610ad3565b820191906000526020600020905b815481529060010190602001808311610ab657829003601f168201915b50505050508152602001826003018054610aec90611cda565b80601f0160208091040260200160405190810160405280929190818152602001828054610b1890611cda565b8015610b655780601f10610b3a57610100808354040283529160200191610b65565b820191906000526020600020905b815481529060010190602001808311610b4857829003601f168201915b50505050508152602001826004018054610b7e90611cda565b80601f0160208091040260200160405190810160405280929190818152602001828054610baa90611cda565b8015610bf75780601f10610bcc57610100808354040283529160200191610bf7565b820191906000526020600020905b815481529060010190602001808311610bda57829003601f168201915b5050505050815260200182600501548152602001826006015481526020018260070160009054906101000a900460ff161515815260200182600801805480602002602001604051908101604052809291908181526020018280548015610cb257602002820191906000526020600020905b8160009054906101000a900473ffffffffffffffffffffffffffffffffffffffff1673ffffffffffffffffffffffffffffffffffffffff1681526020019060010190808311610c68575b5050505050815250848481518110610ccd57610ccc611de4565b5b60200260200101819052508280610ce390611d3d565b935050505b8080610cf390611d3d565b9150506109ac565b5081935050505090565b60006001600083815260200190815260200160002090503373ffffffffffffffffffffffffffffffffffffffff168160010160009054906101000a900473ffffffffffffffffffffffffffffffffffffffff1673ffffffffffffffffffffffffffffffffffffffff1614610dae576040517f08c379a0000000000000000000000000000000000000000000000000000000008152600401610da59061197b565b60405180910390fd5b60008160070160006101000a81548160ff0219169083151502179055507f6daba074dba7f6e2f5fd289e20080bf7047e96329b083fc1dab326fbefd762bb82604051610dfa91906119db565b60405180910390a15050565b60006001600088815260200190815260200160002090503373ffffffffffffffffffffffffffffffffffffffff168160010160009054906101000a900473ffffffffffffffffffffffffffffffffffffffff1673ffffffffffffffffffffffffffffffffffffffff1614610eaf576040517f08c379a0000000000000000000000000000000000000000000000000000000008152600401610ea6906119bb565b60405180910390fd5b85816002019080519060200190610ec792919061110b565b5084816003019080519060200190610ee092919061110b565b5083816004019080519060200190610ef992919061110b565b508281600501819055508181600601819055507f4b8f0934c14da92e4e0907a10b2b403a99fae79d2f3961b5c7f78744ed4434048787604051610f3d929190611b1a565b60405180910390a150505050505050565b606080600060016000868152602001908152602001600020905060008160090160008673ffffffffffffffffffffffffffffffffffffffff1673ffffffffffffffffffffffffffffffffffffffff16815260200190815260200160002090508060000181600101818054610fc190611cda565b80601f0160208091040260200160405190810160405280929190818152602001828054610fed90611cda565b801561103a5780601f1061100f5761010080835404028352916020019161103a565b820191906000526020600020905b81548152906001019060200180831161101d57829003601f168201915b5050505050915080805461104d90611cda565b80601f016020809104026020016040519081016040528092919081815260200182805461107990611cda565b80156110c65780601f1061109b576101008083540402835291602001916110c6565b820191906000526020600020905b8154815290600101906020018083116110a957829003601f168201915b505050505090509350935050509250929050565b600260205281600052604060002081815481106110f657600080fd5b90600052602060002001600091509150505481565b82805461111790611cda565b90600052602060002090601f0160209004810192826111395760008555611180565b82601f1061115257805160ff1916838001178555611180565b82800160010185558215611180579182015b8281111561117f578251825591602001919060010190611164565b5b50905061118d91906111f5565b5090565b60405180610120016040528060008152602001600073ffffffffffffffffffffffffffffffffffffffff1681526020016060815260200160608152602001606081526020016000815260200160008152602001600015158152602001606081525090565b5b8082111561120e5760008160009055506001016111f6565b5090565b600061122561122084611b6f565b611b4a565b90508281526020810184848401111561124157611240611e47565b5b61124c848285611c98565b509392505050565b60008135905061126381611f08565b92915050565b600082601f83011261127e5761127d611e42565b5b813561128e848260208601611212565b91505092915050565b6000813590506112a681611f1f565b92915050565b600080604083850312156112c3576112c2611e51565b5b60006112d185828601611254565b92505060206112e285828601611297565b9150509250929050565b600080600080600060a0868803121561130857611307611e51565b5b600086013567ffffffffffffffff81111561132657611325611e4c565b5b61133288828901611269565b955050602086013567ffffffffffffffff81111561135357611352611e4c565b5b61135f88828901611269565b945050604086013567ffffffffffffffff8111156113805761137f611e4c565b5b61138c88828901611269565b935050606061139d88828901611297565b92505060806113ae88828901611297565b9150509295509295909350565b6000602082840312156113d1576113d0611e51565b5b60006113df84828501611297565b91505092915050565b600080604083850312156113ff576113fe611e51565b5b600061140d85828601611297565b925050602061141e85828601611254565b9150509250929050565b60008060006060848603121561144157611440611e51565b5b600061144f86828701611297565b935050602084013567ffffffffffffffff8111156114705761146f611e4c565b5b61147c86828701611269565b925050604084013567ffffffffffffffff81111561149d5761149c611e4c565b5b6114a986828701611269565b9150509250925092565b60008060008060008060c087890312156114d0576114cf611e51565b5b60006114de89828a01611297565b965050602087013567ffffffffffffffff8111156114ff576114fe611e4c565b5b61150b89828a01611269565b955050604087013567ffffffffffffffff81111561152c5761152b611e4c565b5b61153889828a01611269565b945050606087013567ffffffffffffffff81111561155957611558611e4c565b5b61156589828a01611269565b935050608061157689828a01611297565b92505060a061158789828a01611297565b9150509295509295509295565b60006115a083836115c0565b60208301905092915050565b60006115b88383611808565b905092915050565b6115c981611c50565b82525050565b6115d881611c50565b82525050565b60006115e982611bc0565b6115f38185611bfb565b93506115fe83611ba0565b8060005b8381101561162f5781516116168882611594565b975061162183611be1565b925050600181019050611602565b5085935050505092915050565b600061164782611bc0565b6116518185611c0c565b935061165c83611ba0565b8060005b8381101561168d5781516116748882611594565b975061167f83611be1565b925050600181019050611660565b5085935050505092915050565b60006116a582611bcb565b6116af8185611c1d565b9350836020820285016116c185611bb0565b8060005b858110156116fd57848403895281516116de85826115ac565b94506116e983611bee565b925060208a019950506001810190506116c5565b50829750879550505050505092915050565b61171881611c62565b82525050565b61172781611c62565b82525050565b600061173882611bd6565b6117428185611c2e565b9350611752818560208601611ca7565b61175b81611e56565b840191505092915050565b600061177182611bd6565b61177b8185611c3f565b935061178b818560208601611ca7565b61179481611e56565b840191505092915050565b60006117ac602183611c3f565b91506117b782611e67565b604082019050919050565b60006117cf601183611c3f565b91506117da82611eb6565b602082019050919050565b60006117f2601c83611c3f565b91506117fd82611edf565b602082019050919050565b60006101208301600083015161182160008601826118e2565b50602083015161183460208601826115c0565b506040830151848203604086015261184c828261172d565b91505060608301518482036060860152611866828261172d565b91505060808301518482036080860152611880828261172d565b91505060a083015161189560a08601826118e2565b5060c08301516118a860c08601826118e2565b5060e08301516118bb60e086018261170f565b506101008301518482036101008601526118d582826115de565b9150508091505092915050565b6118eb81611c8e565b82525050565b6118fa81611c8e565b82525050565b6000602082019050818103600083015261191a818461163c565b905092915050565b6000602082019050818103600083015261193c818461169a565b905092915050565b6000604082019050818103600083015261195e8185611766565b905081810360208301526119728184611766565b90509392505050565b600060208201905081810360008301526119948161179f565b9050919050565b600060208201905081810360008301526119b4816117c2565b9050919050565b600060208201905081810360008301526119d4816117e5565b9050919050565b60006020820190506119f060008301846118f1565b92915050565b6000606082019050611a0b60008301866118f1565b611a1860208301856115cf565b8181036040830152611a2a8184611766565b9050949350505050565b6000608082019050611a4960008301876118f1565b611a5660208301866115cf565b8181036040830152611a688185611766565b90508181036060830152611a7c8184611766565b905095945050505050565b600061010082019050611a9d600083018b6118f1565b611aaa602083018a6115cf565b8181036040830152611abc8189611766565b90508181036060830152611ad08188611766565b90508181036080830152611ae48187611766565b9050611af360a08301866118f1565b611b0060c08301856118f1565b611b0d60e083018461171e565b9998505050505050505050565b6000604082019050611b2f60008301856118f1565b8181036020830152611b418184611766565b90509392505050565b6000611b54611b65565b9050611b608282611d0c565b919050565b6000604051905090565b600067ffffffffffffffff821115611b8a57611b89611e13565b5b611b9382611e56565b9050602081019050919050565b6000819050602082019050919050565b6000819050602082019050919050565b600081519050919050565b600081519050919050565b600081519050919050565b6000602082019050919050565b6000602082019050919050565b600082825260208201905092915050565b600082825260208201905092915050565b600082825260208201905092915050565b600082825260208201905092915050565b600082825260208201905092915050565b6000611c5b82611c6e565b9050919050565b60008115159050919050565b600073ffffffffffffffffffffffffffffffffffffffff82169050919050565b6000819050919050565b82818337600083830152505050565b60005b83811015611cc5578082015181840152602081019050611caa565b83811115611cd4576000848401525b50505050565b60006002820490506001821680611cf257607f821691505b60208210811415611d0657611d05611db5565b5b50919050565b611d1582611e56565b810181811067ffffffffffffffff82111715611d3457611d33611e13565b5b80604052505050565b6000611d4882611c8e565b91507fffffffffffffffffffffffffffffffffffffffffffffffffffffffffffffffff821415611d7b57611d7a611d86565b5b600182019050919050565b7f4e487b7100000000000000000000000000000000000000000000000000000000600052601160045260246000fd5b7f4e487b7100000000000000000000000000000000000000000000000000000000600052602260045260246000fd5b7f4e487b7100000000000000000000000000000000000000000000000000000000600052603260045260246000fd5b7f4e487b7100000000000000000000000000000000000000000000000000000000600052604160045260246000fd5b600080fd5b600080fd5b600080fd5b600080fd5b6000601f19601f8301169050919050565b7f4f6e6c792074686520656d706c6f7965722063616e2072656d6f7665206a6f6260008201527f7300000000000000000000000000000000000000000000000000000000000000602082015250565b7f4a6f62206973206e6f7420616374697665000000000000000000000000000000600082015250565b7f4f6e6c792074686520656d706c6f7965722063616e2075706461746500000000600082015250565b611f1181611c50565b8114611f1c57600080fd5b50565b611f2881611c8e565b8114611f3357600080fd5b5056fea26469706673582212201d9c916b329abcc08dd4cab794ac4653fbb43efb3783db9abc746da888f6630964736f6c63430008060033",
    "immutableReferences": {},
    "source": "// //SPDX-License-Identifier: UNLICENSED\r\n\r\n// pragma solidity ^0.8.6;\r\n\r\n// contract JobPortal {\r\n//     struct JobPost {\r\n//         uint id;\r\n//         address employer;\r\n//         string title;\r\n//         string description;\r\n//         string requirements;\r\n//         uint salary;\r\n//         uint applicationDeadline;\r\n//         bool isActive;\r\n//     }\r\n\r\n//     uint public JobCount;\r\n//     mapping(uint => JobPost) public JobPosts;\r\n//     mapping(address => uint[]) public employerJobs;\r\n\r\n//     event JobCreated(uint id, address employer, string title);\r\n//     event JobUpdated(uint id, string title);\r\n//     event JobRemoved(uint id);\r\n\r\n//     function createJob(string memory _title, string memory _description, string memory _reqiurements, uint _salary, uint _applicationDeadine) public {\r\n//         JobCount++;\r\n//         JobPosts[JobCount] = JobPost(JobCount, msg.sender, _title, _description, _reqiurements, _salary, _applicationDeadine, true);\r\n//         employerJobs[msg.sender].push(JobCount);\r\n\r\n//         emit JobCreated(JobCount, msg.sender, _title);\r\n//     }\r\n\r\n//     function updatedJob(uint _id, string memory _title, string memory _description, string memory _reqiurements, uint _salary, uint _applicationDeadine) public {\r\n//         JobPost storage job = JobPosts[_id];\r\n//         require(job.employer == msg.sender, \"Only the Employer can update\");\r\n//         job.title = _title;\r\n//         job.description = _description;\r\n//         job.requirements = _reqiurements;\r\n//         job.salary = _salary;\r\n//         job.applicationDeadline = _applicationDeadine;\r\n\r\n//         emit JobUpdated(_id, _title);\r\n//     }\r\n\r\n//     function removeJob(uint _id) public {\r\n//         JobPost storage job = JobPosts[_id];\r\n//         require(job.employer == msg.sender, \"Only Employer can Remove Jobs\");\r\n//         job.isActive = false;\r\n\r\n//         emit JobRemoved(_id);\r\n//     }\r\n\r\n//     function getAllJobs() public view returns (JobPost[] memory){\r\n//         JobPost[] memory jobs = new JobPost[](JobCount);\r\n//         uint count = 0;\r\n//         for(uint i=1; i<=JobCount; i++){\r\n//             if(JobPosts[i].isActive){\r\n//                 jobs[count] = JobPosts[i];\r\n//                 count++; \r\n//             }\r\n//         }\r\n//         return jobs;\r\n//     }\r\n// }\r\n\r\n// SPDX-License-Identifier: UNLICENSED\r\npragma solidity ^0.8.6;\r\n\r\ncontract JobPortal {\r\n    struct JobPost {\r\n        uint id;\r\n        address employer;\r\n        string title;\r\n        string description;\r\n        string requirements;\r\n        uint salary;\r\n        uint applicationDeadline;\r\n        bool isActive;\r\n        address[] applicants;\r\n        mapping(address => ApplicantInfo) applicantInfo;\r\n    }\r\n\r\n    struct ApplicantInfo {\r\n        string name;\r\n        string resume;\r\n    }\r\n\r\n    struct JobPostView {\r\n        uint id;\r\n        address employer;\r\n        string title;\r\n        string description;\r\n        string requirements;\r\n        uint salary;\r\n        uint applicationDeadline;\r\n        bool isActive;\r\n        address[] applicants;\r\n    }\r\n\r\n    uint public JobCount;\r\n    mapping(uint => JobPost) public JobPosts;\r\n    mapping(address => uint[]) public employerJobs;\r\n    mapping(address => uint[]) public applicantJobs;\r\n\r\n    event JobCreated(uint id, address employer, string title);\r\n    event JobUpdated(uint id, string title);\r\n    event JobRemoved(uint id);\r\n    event JobApplied(uint jobId, address applicant, string name, string resume);\r\n\r\n    function createJob(\r\n        string memory _title,\r\n        string memory _description,\r\n        string memory _requirements,\r\n        uint _salary,\r\n        uint _applicationDeadline\r\n    ) public {\r\n        JobCount++;\r\n        JobPost storage job = JobPosts[JobCount];\r\n        job.id = JobCount;\r\n        job.employer = msg.sender;\r\n        job.title = _title;\r\n        job.description = _description;\r\n        job.requirements = _requirements;\r\n        job.salary = _salary;\r\n        job.applicationDeadline = _applicationDeadline;\r\n        job.isActive = true;\r\n        employerJobs[msg.sender].push(JobCount);\r\n\r\n        emit JobCreated(JobCount, msg.sender, _title);\r\n    }\r\n\r\n    function updateJob(\r\n        uint _id,\r\n        string memory _title,\r\n        string memory _description,\r\n        string memory _requirements,\r\n        uint _salary,\r\n        uint _applicationDeadline\r\n    ) public {\r\n        JobPost storage job = JobPosts[_id];\r\n        require(job.employer == msg.sender, \"Only the employer can update\");\r\n        job.title = _title;\r\n        job.description = _description;\r\n        job.requirements = _requirements;\r\n        job.salary = _salary;\r\n        job.applicationDeadline = _applicationDeadline;\r\n\r\n        emit JobUpdated(_id, _title);\r\n    }\r\n\r\n    function removeJob(uint _id) public {\r\n        JobPost storage job = JobPosts[_id];\r\n        require(job.employer == msg.sender, \"Only the employer can remove jobs\");\r\n        job.isActive = false;\r\n\r\n        emit JobRemoved(_id);\r\n    }\r\n\r\n    function applyForJob(uint _jobId, string memory _name, string memory _resume) public {\r\n        JobPost storage job = JobPosts[_jobId];\r\n        require(job.isActive, \"Job is not active\");\r\n        // require(block.timestamp <= job.applicationDeadline, \"Application deadline has passed\");\r\n\r\n        job.applicants.push(msg.sender);\r\n        job.applicantInfo[msg.sender] = ApplicantInfo({\r\n            name: _name,\r\n            resume: _resume\r\n        });\r\n        applicantJobs[msg.sender].push(_jobId);\r\n\r\n        emit JobApplied(_jobId, msg.sender, _name, _resume);\r\n    }\r\n\r\n    function getAllJobs() public view returns (JobPostView[] memory) {\r\n        uint activeCount = 0;\r\n        for (uint i = 1; i <= JobCount; i++) {\r\n            if (JobPosts[i].isActive) {\r\n                activeCount++;\r\n            }\r\n        }\r\n\r\n        JobPostView[] memory jobs = new JobPostView[](activeCount);\r\n        uint index = 0;\r\n        for (uint i = 1; i <= JobCount; i++) {\r\n            if (JobPosts[i].isActive) {\r\n                JobPost storage job = JobPosts[i];\r\n                jobs[index] = JobPostView({\r\n                    id: job.id,\r\n                    employer: job.employer,\r\n                    title: job.title,\r\n                    description: job.description,\r\n                    requirements: job.requirements,\r\n                    salary: job.salary,\r\n                    applicationDeadline: job.applicationDeadline,\r\n                    isActive: job.isActive,\r\n                    applicants: job.applicants\r\n                });\r\n                index++;\r\n            }\r\n        }\r\n        return jobs;\r\n    }\r\n\r\n    function getApplicants(uint _jobId) public view returns (address[] memory) {\r\n        JobPost storage job = JobPosts[_jobId];\r\n        return job.applicants;\r\n    }\r\n\r\n    function getApplicantInfo(uint _jobId, address _applicant) public view returns (string memory, string memory) {\r\n        JobPost storage job = JobPosts[_jobId];\r\n        ApplicantInfo storage info = job.applicantInfo[_applicant];\r\n        return (info.name, info.resume);\r\n    }\r\n}\r\n",
    "sourcePath": "D:\\HackOnBlock\\HackOn-Titanz\\Solidity\\contracts\\JobPortalMangement.sol",
    "compiler": {
        "name": "solc",
        "version": "0.8.6+commit.11564f7e.Emscripten.clang"
    },
    "schemaVersion": "3.4.16",
    "updatedAt": "2024-07-23T10:25:52.600Z",
    "devdoc": {
        "kind": "dev",
        "methods": {},
        "version": 1
    },
    "userdoc": {
        "kind": "user",
        "methods": {},
        "version": 1
    }
}